{
  "contractName": "QuillCrowdsale",
  "abi": [
    {
      "inputs": [
        {
          "internalType": "uint256",
          "name": "rate",
          "type": "uint256"
        },
        {
          "internalType": "address payable",
          "name": "wallet",
          "type": "address"
        },
        {
          "internalType": "contract IERC20",
          "name": "ERCtoken",
          "type": "address"
        }
      ],
      "payable": false,
      "stateMutability": "nonpayable",
      "type": "constructor"
    },
    {
      "anonymous": false,
      "inputs": [
        {
          "indexed": true,
          "internalType": "address",
          "name": "purchaser",
          "type": "address"
        },
        {
          "indexed": true,
          "internalType": "address",
          "name": "beneficiary",
          "type": "address"
        },
        {
          "indexed": false,
          "internalType": "uint256",
          "name": "value",
          "type": "uint256"
        },
        {
          "indexed": false,
          "internalType": "uint256",
          "name": "amount",
          "type": "uint256"
        }
      ],
      "name": "TokensPurchased",
      "type": "event"
    },
    {
      "payable": true,
      "stateMutability": "payable",
      "type": "fallback"
    },
    {
      "constant": true,
      "inputs": [],
      "name": "QuillTtoken",
      "outputs": [
        {
          "internalType": "contract IERC20",
          "name": "",
          "type": "address"
        }
      ],
      "payable": false,
      "stateMutability": "view",
      "type": "function"
    },
    {
      "constant": true,
      "inputs": [],
      "name": "_rate",
      "outputs": [
        {
          "internalType": "uint256",
          "name": "",
          "type": "uint256"
        }
      ],
      "payable": false,
      "stateMutability": "view",
      "type": "function"
    },
    {
      "constant": false,
      "inputs": [
        {
          "internalType": "address",
          "name": "beneficiary",
          "type": "address"
        }
      ],
      "name": "buyTokens",
      "outputs": [],
      "payable": true,
      "stateMutability": "payable",
      "type": "function"
    },
    {
      "constant": true,
      "inputs": [],
      "name": "exchangeRate",
      "outputs": [
        {
          "internalType": "uint256",
          "name": "",
          "type": "uint256"
        }
      ],
      "payable": false,
      "stateMutability": "view",
      "type": "function"
    },
    {
      "constant": true,
      "inputs": [
        {
          "internalType": "address",
          "name": "",
          "type": "address"
        }
      ],
      "name": "lockupData",
      "outputs": [
        {
          "internalType": "uint256",
          "name": "apy",
          "type": "uint256"
        },
        {
          "internalType": "uint256",
          "name": "tokensLocked",
          "type": "uint256"
        },
        {
          "internalType": "uint256",
          "name": "lockUpTime",
          "type": "uint256"
        },
        {
          "internalType": "uint256",
          "name": "deadLineInDays",
          "type": "uint256"
        },
        {
          "internalType": "uint256",
          "name": "interestEarned",
          "type": "uint256"
        },
        {
          "internalType": "address",
          "name": "uid",
          "type": "address"
        },
        {
          "internalType": "address",
          "name": "owner",
          "type": "address"
        }
      ],
      "payable": false,
      "stateMutability": "view",
      "type": "function"
    },
    {
      "constant": true,
      "inputs": [
        {
          "internalType": "address",
          "name": "",
          "type": "address"
        },
        {
          "internalType": "uint256",
          "name": "",
          "type": "uint256"
        }
      ],
      "name": "oneMonthperiod",
      "outputs": [
        {
          "internalType": "uint256",
          "name": "apy",
          "type": "uint256"
        },
        {
          "internalType": "uint256",
          "name": "tokensLocked",
          "type": "uint256"
        },
        {
          "internalType": "uint256",
          "name": "lockUpTime",
          "type": "uint256"
        },
        {
          "internalType": "uint256",
          "name": "deadLineInDays",
          "type": "uint256"
        },
        {
          "internalType": "uint256",
          "name": "interestEarned",
          "type": "uint256"
        },
        {
          "internalType": "address",
          "name": "uid",
          "type": "address"
        },
        {
          "internalType": "address",
          "name": "owner",
          "type": "address"
        }
      ],
      "payable": false,
      "stateMutability": "view",
      "type": "function"
    },
    {
      "constant": true,
      "inputs": [],
      "name": "rate",
      "outputs": [
        {
          "internalType": "uint256",
          "name": "",
          "type": "uint256"
        }
      ],
      "payable": false,
      "stateMutability": "view",
      "type": "function"
    },
    {
      "constant": true,
      "inputs": [
        {
          "internalType": "address",
          "name": "",
          "type": "address"
        },
        {
          "internalType": "uint256",
          "name": "",
          "type": "uint256"
        }
      ],
      "name": "threeMonthperiod",
      "outputs": [
        {
          "internalType": "uint256",
          "name": "apy",
          "type": "uint256"
        },
        {
          "internalType": "uint256",
          "name": "tokensLocked",
          "type": "uint256"
        },
        {
          "internalType": "uint256",
          "name": "lockUpTime",
          "type": "uint256"
        },
        {
          "internalType": "uint256",
          "name": "deadLineInDays",
          "type": "uint256"
        },
        {
          "internalType": "uint256",
          "name": "interestEarned",
          "type": "uint256"
        },
        {
          "internalType": "address",
          "name": "uid",
          "type": "address"
        },
        {
          "internalType": "address",
          "name": "owner",
          "type": "address"
        }
      ],
      "payable": false,
      "stateMutability": "view",
      "type": "function"
    },
    {
      "constant": true,
      "inputs": [
        {
          "internalType": "uint8",
          "name": "",
          "type": "uint8"
        }
      ],
      "name": "timeToInterest_NonStaked",
      "outputs": [
        {
          "internalType": "uint8",
          "name": "",
          "type": "uint8"
        }
      ],
      "payable": false,
      "stateMutability": "view",
      "type": "function"
    },
    {
      "constant": true,
      "inputs": [
        {
          "internalType": "uint8",
          "name": "",
          "type": "uint8"
        }
      ],
      "name": "timeToInterest_Staked",
      "outputs": [
        {
          "internalType": "uint8",
          "name": "",
          "type": "uint8"
        }
      ],
      "payable": false,
      "stateMutability": "view",
      "type": "function"
    },
    {
      "constant": true,
      "inputs": [],
      "name": "token",
      "outputs": [
        {
          "internalType": "contract IERC20",
          "name": "",
          "type": "address"
        }
      ],
      "payable": false,
      "stateMutability": "view",
      "type": "function"
    },
    {
      "constant": true,
      "inputs": [],
      "name": "totalUIDs",
      "outputs": [
        {
          "internalType": "uint256",
          "name": "",
          "type": "uint256"
        }
      ],
      "payable": false,
      "stateMutability": "view",
      "type": "function"
    },
    {
      "constant": true,
      "inputs": [
        {
          "internalType": "uint256",
          "name": "",
          "type": "uint256"
        }
      ],
      "name": "uidList",
      "outputs": [
        {
          "internalType": "address",
          "name": "",
          "type": "address"
        }
      ],
      "payable": false,
      "stateMutability": "view",
      "type": "function"
    },
    {
      "constant": true,
      "inputs": [
        {
          "internalType": "address",
          "name": "",
          "type": "address"
        }
      ],
      "name": "userData",
      "outputs": [
        {
          "internalType": "uint256",
          "name": "totalStaked",
          "type": "uint256"
        },
        {
          "internalType": "uint256",
          "name": "totalThreeMonthUIDs",
          "type": "uint256"
        },
        {
          "internalType": "uint256",
          "name": "totalOneMonthUIDs",
          "type": "uint256"
        },
        {
          "internalType": "address",
          "name": "userAddress",
          "type": "address"
        },
        {
          "internalType": "bool",
          "name": "staked",
          "type": "bool"
        }
      ],
      "payable": false,
      "stateMutability": "view",
      "type": "function"
    },
    {
      "constant": true,
      "inputs": [],
      "name": "wallet",
      "outputs": [
        {
          "internalType": "address payable",
          "name": "",
          "type": "address"
        }
      ],
      "payable": false,
      "stateMutability": "view",
      "type": "function"
    },
    {
      "constant": true,
      "inputs": [],
      "name": "weiRaised",
      "outputs": [
        {
          "internalType": "uint256",
          "name": "",
          "type": "uint256"
        }
      ],
      "payable": false,
      "stateMutability": "view",
      "type": "function"
    },
    {
      "constant": true,
      "inputs": [
        {
          "internalType": "address",
          "name": "_user",
          "type": "address"
        }
      ],
      "name": "get",
      "outputs": [
        {
          "internalType": "uint256",
          "name": "",
          "type": "uint256"
        }
      ],
      "payable": false,
      "stateMutability": "view",
      "type": "function"
    },
    {
      "constant": false,
      "inputs": [
        {
          "internalType": "uint256",
          "name": "_amountInDollars",
          "type": "uint256"
        }
      ],
      "name": "stake",
      "outputs": [],
      "payable": false,
      "stateMutability": "nonpayable",
      "type": "function"
    },
    {
      "constant": false,
      "inputs": [
        {
          "internalType": "uint256",
          "name": "_tokens",
          "type": "uint256"
        },
        {
          "internalType": "uint8",
          "name": "_numberOfMonths",
          "type": "uint8"
        }
      ],
      "name": "lockUp",
      "outputs": [],
      "payable": false,
      "stateMutability": "nonpayable",
      "type": "function"
    },
    {
      "constant": false,
      "inputs": [
        {
          "internalType": "uint256",
          "name": "_interest",
          "type": "uint256"
        },
        {
          "internalType": "address",
          "name": "_user",
          "type": "address"
        },
        {
          "internalType": "uint256",
          "name": "_tokens",
          "type": "uint256"
        },
        {
          "internalType": "uint256",
          "name": "_numberOfMonths",
          "type": "uint256"
        }
      ],
      "name": "assignInterest",
      "outputs": [],
      "payable": false,
      "stateMutability": "nonpayable",
      "type": "function"
    },
    {
      "constant": false,
      "inputs": [
        {
          "internalType": "address",
          "name": "_uid",
          "type": "address"
        }
      ],
      "name": "updateInterest",
      "outputs": [],
      "payable": false,
      "stateMutability": "nonpayable",
      "type": "function"
    },
    {
      "constant": false,
      "inputs": [
        {
          "internalType": "address",
          "name": "_uid",
          "type": "address"
        }
      ],
      "name": "withdrawLockedTokens",
      "outputs": [],
      "payable": false,
      "stateMutability": "nonpayable",
      "type": "function"
    }
  ],
  "bytecode": "0x60806040526103e86007553480156200001757600080fd5b506040516200329638038062003296833981810160405260608110156200003d57600080fd5b8101908080519060200190929190805190602001909291908051906020019092919050505082828260016000806101000a81548160ff02191690831515021790555060008311620000f6576040517f08c379a00000000000000000000000000000000000000000000000000000000081526004018080602001828103825260148152602001807f43726f776473616c653a2072617465206973203000000000000000000000000081525060200191505060405180910390fd5b600073ffffffffffffffffffffffffffffffffffffffff168273ffffffffffffffffffffffffffffffffffffffff1614156200017e576040517f08c379a0000000000000000000000000000000000000000000000000000000008152600401808060200182810382526025815260200180620032716025913960400191505060405180910390fd5b600073ffffffffffffffffffffffffffffffffffffffff168173ffffffffffffffffffffffffffffffffffffffff16141562000206576040517f08c379a00000000000000000000000000000000000000000000000000000000081526004018080602001828103825260248152602001806200324d6024913960400191505060405180910390fd5b8260028190555081600160006101000a81548173ffffffffffffffffffffffffffffffffffffffff021916908373ffffffffffffffffffffffffffffffffffffffff16021790555080600060016101000a81548173ffffffffffffffffffffffffffffffffffffffff021916908373ffffffffffffffffffffffffffffffffffffffff16021790555050505080600660006101000a81548173ffffffffffffffffffffffffffffffffffffffff021916908373ffffffffffffffffffffffffffffffffffffffff16021790555082600481905550601460086000600360ff16815260200190815260200160002060006101000a81548160ff021916908360ff160217905550601060086000600160ff16815260200190815260200160002060006101000a81548160ff021916908360ff160217905550601060096000600360ff16815260200190815260200160002060006101000a81548160ff021916908360ff160217905550600c60096000600160ff16815260200190815260200160002060006101000a81548160ff021916908360ff160217905550505050612e9c80620003b16000396000f3fe6080604052600436106101355760003560e01c80639f712bbc116100ab578063c2bc2efc1161006f578063c2bc2efc1461071b578063c891091314610780578063e46df0c514610831578063ec3e23f114610879578063ec8ac4d81461096a578063fc0c546a146109ae57610135565b80639f712bbc14610435578063a33e1ec81461048d578063a688faa214610508578063a694fc3a146105f9578063ab3afa3d1461063457610135565b8063521eb273116100fd578063521eb273146102445780635766b16d1461029b5780637b3c5da71461030a5780637fb1a4c91461035b57806383bebced146103b35780638c525c43146103de57610135565b80632c4e722e146101475780633ba0b9a9146101725780634042b66f1461019d578063494790f4146101c857806351bc4f3c14610219575b610145610140610a05565b610a0d565b005b34801561015357600080fd5b5061015c610b98565b6040518082815260200191505060405180910390f35b34801561017e57600080fd5b50610187610ba2565b6040518082815260200191505060405180910390f35b3480156101a957600080fd5b506101b2610ba8565b6040518082815260200191505060405180910390f35b3480156101d457600080fd5b50610217600480360360208110156101eb57600080fd5b81019080803573ffffffffffffffffffffffffffffffffffffffff169060200190929190505050610bb2565b005b34801561022557600080fd5b5061022e611093565b6040518082815260200191505060405180910390f35b34801561025057600080fd5b50610259611099565b604051808273ffffffffffffffffffffffffffffffffffffffff1673ffffffffffffffffffffffffffffffffffffffff16815260200191505060405180910390f35b3480156102a757600080fd5b50610308600480360360808110156102be57600080fd5b8101908080359060200190929190803573ffffffffffffffffffffffffffffffffffffffff16906020019092919080359060200190929190803590602001909291905050506110c3565b005b34801561031657600080fd5b506103596004803603602081101561032d57600080fd5b81019080803573ffffffffffffffffffffffffffffffffffffffff1690602001909291905050506119dc565b005b34801561036757600080fd5b506103976004803603602081101561037e57600080fd5b81019080803560ff169060200190929190505050611eb4565b604051808260ff1660ff16815260200191505060405180910390f35b3480156103bf57600080fd5b506103c8611ed4565b6040518082815260200191505060405180910390f35b3480156103ea57600080fd5b506103f3611eda565b604051808273ffffffffffffffffffffffffffffffffffffffff1673ffffffffffffffffffffffffffffffffffffffff16815260200191505060405180910390f35b34801561044157600080fd5b506104716004803603602081101561045857600080fd5b81019080803560ff169060200190929190505050611f00565b604051808260ff1660ff16815260200191505060405180910390f35b34801561049957600080fd5b506104c6600480360360208110156104b057600080fd5b8101908080359060200190929190505050611f20565b604051808273ffffffffffffffffffffffffffffffffffffffff1673ffffffffffffffffffffffffffffffffffffffff16815260200191505060405180910390f35b34801561051457600080fd5b506105616004803603604081101561052b57600080fd5b81019080803573ffffffffffffffffffffffffffffffffffffffff16906020019092919080359060200190929190505050611f53565b604051808881526020018781526020018681526020018581526020018481526020018373ffffffffffffffffffffffffffffffffffffffff1673ffffffffffffffffffffffffffffffffffffffff1681526020018273ffffffffffffffffffffffffffffffffffffffff1673ffffffffffffffffffffffffffffffffffffffff16815260200197505050505050505060405180910390f35b34801561060557600080fd5b506106326004803603602081101561061c57600080fd5b8101908080359060200190929190505050611fe2565b005b34801561064057600080fd5b506106836004803603602081101561065757600080fd5b81019080803573ffffffffffffffffffffffffffffffffffffffff169060200190929190505050612254565b604051808881526020018781526020018681526020018581526020018481526020018373ffffffffffffffffffffffffffffffffffffffff1673ffffffffffffffffffffffffffffffffffffffff1681526020018273ffffffffffffffffffffffffffffffffffffffff1673ffffffffffffffffffffffffffffffffffffffff16815260200197505050505050505060405180910390f35b34801561072757600080fd5b5061076a6004803603602081101561073e57600080fd5b81019080803573ffffffffffffffffffffffffffffffffffffffff1690602001909291905050506122d6565b6040518082815260200191505060405180910390f35b34801561078c57600080fd5b506107cf600480360360208110156107a357600080fd5b81019080803573ffffffffffffffffffffffffffffffffffffffff1690602001909291905050506123b9565b604051808681526020018581526020018481526020018373ffffffffffffffffffffffffffffffffffffffff1673ffffffffffffffffffffffffffffffffffffffff168152602001821515151581526020019550505050505060405180910390f35b34801561083d57600080fd5b506108776004803603604081101561085457600080fd5b8101908080359060200190929190803560ff16906020019092919050505061241c565b005b34801561088557600080fd5b506108d26004803603604081101561089c57600080fd5b81019080803573ffffffffffffffffffffffffffffffffffffffff169060200190929190803590602001909291905050506124eb565b604051808881526020018781526020018681526020018581526020018481526020018373ffffffffffffffffffffffffffffffffffffffff1673ffffffffffffffffffffffffffffffffffffffff1681526020018273ffffffffffffffffffffffffffffffffffffffff1673ffffffffffffffffffffffffffffffffffffffff16815260200197505050505050505060405180910390f35b6109ac6004803603602081101561098057600080fd5b81019080803573ffffffffffffffffffffffffffffffffffffffff169060200190929190505050610a0d565b005b3480156109ba57600080fd5b506109c361257a565b604051808273ffffffffffffffffffffffffffffffffffffffff1673ffffffffffffffffffffffffffffffffffffffff16815260200191505060405180910390f35b600033905090565b6000809054906101000a900460ff16610a8e576040517f08c379a000000000000000000000000000000000000000000000000000000000815260040180806020018281038252601f8152602001807f5265656e7472616e637947756172643a207265656e7472616e742063616c6c0081525060200191505060405180910390fd5b60008060006101000a81548160ff0219169083151502179055506000349050610ab782826125a3565b6000610ac2826126a4565b9050610ad9826003546126c290919063ffffffff16565b600381905550610ae9838261274a565b8273ffffffffffffffffffffffffffffffffffffffff16610b08610a05565b73ffffffffffffffffffffffffffffffffffffffff167f6faf93231a456e552dbc9961f58d9713ee4f2e69d15f1975b050ef0911053a7b8484604051808381526020018281526020019250505060405180910390a3610b678383612758565b610b6f61275c565b610b7983836127c7565b505060016000806101000a81548160ff02191690831515021790555050565b6000600254905090565b60075481565b6000600354905090565b3373ffffffffffffffffffffffffffffffffffffffff16600b60008373ffffffffffffffffffffffffffffffffffffffff1673ffffffffffffffffffffffffffffffffffffffff16815260200190815260200160002060060160009054906101000a900473ffffffffffffffffffffffffffffffffffffffff1673ffffffffffffffffffffffffffffffffffffffff1614610cb5576040517f08c379a00000000000000000000000000000000000000000000000000000000081526004018080602001828103825260178152602001807f43616c6c6572206973206e6f7420746865204f574e455200000000000000000081525060200191505060405180910390fd5b6000600b60008373ffffffffffffffffffffffffffffffffffffffff1673ffffffffffffffffffffffffffffffffffffffff168152602001908152602001600020600301549050620151808102600b60008473ffffffffffffffffffffffffffffffffffffffff1673ffffffffffffffffffffffffffffffffffffffff16815260200190815260200160002060020154014211610dba576040517f08c379a000000000000000000000000000000000000000000000000000000000815260040180806020018281038252601a8152602001807f4c6f636b555020706572696f64204e4f54204f5645522059455400000000000081525060200191505060405180910390fd5b6000600b60008473ffffffffffffffffffffffffffffffffffffffff1673ffffffffffffffffffffffffffffffffffffffff168152602001908152602001600020600101549050600660009054906101000a900473ffffffffffffffffffffffffffffffffffffffff1673ffffffffffffffffffffffffffffffffffffffff166370a08231306040518263ffffffff1660e01b8152600401808273ffffffffffffffffffffffffffffffffffffffff1673ffffffffffffffffffffffffffffffffffffffff16815260200191505060206040518083038186803b158015610ea057600080fd5b505afa158015610eb4573d6000803e3d6000fd5b505050506040513d6020811015610eca57600080fd5b8101908080519060200190929190505050811115610fa857600660009054906101000a900473ffffffffffffffffffffffffffffffffffffffff1673ffffffffffffffffffffffffffffffffffffffff16634e6ec24733836040518363ffffffff1660e01b8152600401808373ffffffffffffffffffffffffffffffffffffffff1673ffffffffffffffffffffffffffffffffffffffff16815260200182815260200192505050600060405180830381600087803b158015610f8b57600080fd5b505af1158015610f9f573d6000803e3d6000fd5b5050505061108e565b600660009054906101000a900473ffffffffffffffffffffffffffffffffffffffff1673ffffffffffffffffffffffffffffffffffffffff1663a9059cbb33836040518363ffffffff1660e01b8152600401808373ffffffffffffffffffffffffffffffffffffffff1673ffffffffffffffffffffffffffffffffffffffff16815260200182815260200192505050602060405180830381600087803b15801561105157600080fd5b505af1158015611065573d6000803e3d6000fd5b505050506040513d602081101561107b57600080fd5b8101908080519060200190929190505050505b505050565b60055481565b6000600160009054906101000a900473ffffffffffffffffffffffffffffffffffffffff16905090565b81600660009054906101000a900473ffffffffffffffffffffffffffffffffffffffff1673ffffffffffffffffffffffffffffffffffffffff166370a08231856040518263ffffffff1660e01b8152600401808273ffffffffffffffffffffffffffffffffffffffff1673ffffffffffffffffffffffffffffffffffffffff16815260200191505060206040518083038186803b15801561116357600080fd5b505afa158015611177573d6000803e3d6000fd5b505050506040513d602081101561118d57600080fd5b810190808051906020019092919050505011611211576040517f08c379a000000000000000000000000000000000000000000000000000000000815260040180806020018281038252601a8152602001807f557365722042616c616e6365206973204e6f7420456e6f75676800000000000081525060200191505060405180910390fd5b600660009054906101000a900473ffffffffffffffffffffffffffffffffffffffff1673ffffffffffffffffffffffffffffffffffffffff166323b872dd8430856040518463ffffffff1660e01b8152600401808473ffffffffffffffffffffffffffffffffffffffff1673ffffffffffffffffffffffffffffffffffffffff1681526020018373ffffffffffffffffffffffffffffffffffffffff1673ffffffffffffffffffffffffffffffffffffffff1681526020018281526020019350505050602060405180830381600087803b1580156112ee57600080fd5b505af1158015611302573d6000803e3d6000fd5b505050506040513d602081101561131857600080fd5b81019080805190602001909291905050505060003342604051602001808373ffffffffffffffffffffffffffffffffffffffff1673ffffffffffffffffffffffffffffffffffffffff1660601b8152601401828152602001925050506040516020818303038152906040528051906020012060601c90506005600081548092919060010191905055506113a9612d19565b6040518060e001604052808781526020018581526020014281526020016113da600a866127cb90919063ffffffff16565b8152602001600081526020018373ffffffffffffffffffffffffffffffffffffffff1681526020018673ffffffffffffffffffffffffffffffffffffffff16815250905080600b60008473ffffffffffffffffffffffffffffffffffffffff1673ffffffffffffffffffffffffffffffffffffffff168152602001908152602001600020600082015181600001556020820151816001015560408201518160020155606082015181600301556080820151816004015560a08201518160050160006101000a81548173ffffffffffffffffffffffffffffffffffffffff021916908373ffffffffffffffffffffffffffffffffffffffff16021790555060c08201518160060160006101000a81548173ffffffffffffffffffffffffffffffffffffffff021916908373ffffffffffffffffffffffffffffffffffffffff160217905550905050611529612d82565b600a60008773ffffffffffffffffffffffffffffffffffffffff1673ffffffffffffffffffffffffffffffffffffffff1681526020019081526020016000206040518060a00160405290816000820154815260200160018201548152602001600282015481526020016003820160009054906101000a900473ffffffffffffffffffffffffffffffffffffffff1673ffffffffffffffffffffffffffffffffffffffff1673ffffffffffffffffffffffffffffffffffffffff1681526020016003820160149054906101000a900460ff16151515158152505090508481600001818151019150818152505085816060019073ffffffffffffffffffffffffffffffffffffffff16908173ffffffffffffffffffffffffffffffffffffffff1681525050600384141561178357600181602001818151019150818152505081600d60008873ffffffffffffffffffffffffffffffffffffffff1673ffffffffffffffffffffffffffffffffffffffff168152602001908152602001600020600083602001518152602001908152602001600020600082015181600001556020820151816001015560408201518160020155606082015181600301556080820151816004015560a08201518160050160006101000a81548173ffffffffffffffffffffffffffffffffffffffff021916908373ffffffffffffffffffffffffffffffffffffffff16021790555060c08201518160060160006101000a81548173ffffffffffffffffffffffffffffffffffffffff021916908373ffffffffffffffffffffffffffffffffffffffff1602179055509050506118b7565b60018414156118b657600181604001818151019150818152505081600e60008873ffffffffffffffffffffffffffffffffffffffff1673ffffffffffffffffffffffffffffffffffffffff168152602001908152602001600020600083604001518152602001908152602001600020600082015181600001556020820151816001015560408201518160020155606082015181600301556080820151816004015560a08201518160050160006101000a81548173ffffffffffffffffffffffffffffffffffffffff021916908373ffffffffffffffffffffffffffffffffffffffff16021790555060c08201518160060160006101000a81548173ffffffffffffffffffffffffffffffffffffffff021916908373ffffffffffffffffffffffffffffffffffffffff1602179055509050505b5b80600a60008873ffffffffffffffffffffffffffffffffffffffff1673ffffffffffffffffffffffffffffffffffffffff16815260200190815260200160002060008201518160000155602082015181600101556040820151816002015560608201518160030160006101000a81548173ffffffffffffffffffffffffffffffffffffffff021916908373ffffffffffffffffffffffffffffffffffffffff16021790555060808201518160030160146101000a81548160ff02191690831515021790555090505082600c6000600554815260200190815260200160002060006101000a81548173ffffffffffffffffffffffffffffffffffffffff021916908373ffffffffffffffffffffffffffffffffffffffff16021790555050505050505050565b3373ffffffffffffffffffffffffffffffffffffffff16600b60008373ffffffffffffffffffffffffffffffffffffffff1673ffffffffffffffffffffffffffffffffffffffff16815260200190815260200160002060060160009054906101000a900473ffffffffffffffffffffffffffffffffffffffff1673ffffffffffffffffffffffffffffffffffffffff1614611adf576040517f08c379a00000000000000000000000000000000000000000000000000000000081526004018080602001828103825260178152602001807f43616c6c6572206973206e6f7420746865204f574e455200000000000000000081525060200191505060405180910390fd5b62093a80600b60008373ffffffffffffffffffffffffffffffffffffffff1673ffffffffffffffffffffffffffffffffffffffff16815260200190815260200160002060020154014211611b7e576040517f08c379a0000000000000000000000000000000000000000000000000000000008152600401808060200182810382526029815260200180612e156029913960400191505060405180910390fd5b6000600b60008373ffffffffffffffffffffffffffffffffffffffff1673ffffffffffffffffffffffffffffffffffffffff1681526020019081526020016000206001015490506000600b60008473ffffffffffffffffffffffffffffffffffffffff1673ffffffffffffffffffffffffffffffffffffffff1681526020019081526020016000206000015490506000611c346064611c2685856127cb90919063ffffffff16565b61285190919063ffffffff16565b90506000611c4b82856126c290919063ffffffff16565b9050611c55612d19565b600b60008773ffffffffffffffffffffffffffffffffffffffff1673ffffffffffffffffffffffffffffffffffffffff1681526020019081526020016000206040518060e001604052908160008201548152602001600182015481526020016002820154815260200160038201548152602001600482015481526020016005820160009054906101000a900473ffffffffffffffffffffffffffffffffffffffff1673ffffffffffffffffffffffffffffffffffffffff1673ffffffffffffffffffffffffffffffffffffffff1681526020016006820160009054906101000a900473ffffffffffffffffffffffffffffffffffffffff1673ffffffffffffffffffffffffffffffffffffffff1673ffffffffffffffffffffffffffffffffffffffff1681525050905082816080018181510191508181525050818160200181815101915081815250504281604001818152505080600b60008873ffffffffffffffffffffffffffffffffffffffff1673ffffffffffffffffffffffffffffffffffffffff168152602001908152602001600020600082015181600001556020820151816001015560408201518160020155606082015181600301556080820151816004015560a08201518160050160006101000a81548173ffffffffffffffffffffffffffffffffffffffff021916908373ffffffffffffffffffffffffffffffffffffffff16021790555060c08201518160060160006101000a81548173ffffffffffffffffffffffffffffffffffffffff021916908373ffffffffffffffffffffffffffffffffffffffff160217905550905050505050505050565b60096020528060005260406000206000915054906101000a900460ff1681565b60045481565b600660009054906101000a900473ffffffffffffffffffffffffffffffffffffffff1681565b60086020528060005260406000206000915054906101000a900460ff1681565b600c6020528060005260406000206000915054906101000a900473ffffffffffffffffffffffffffffffffffffffff1681565b600d602052816000526040600020602052806000526040600020600091509150508060000154908060010154908060020154908060030154908060040154908060050160009054906101000a900473ffffffffffffffffffffffffffffffffffffffff16908060060160009054906101000a900473ffffffffffffffffffffffffffffffffffffffff16905087565b6000339050600a60008273ffffffffffffffffffffffffffffffffffffffff1673ffffffffffffffffffffffffffffffffffffffff16815260200190815260200160002060030160149054906101000a900460ff16156120aa576040517f08c379a00000000000000000000000000000000000000000000000000000000081526004018080602001828103825260178152602001807f557365722068617320616c7265616479205354414b454400000000000000000081525060200191505060405180910390fd5b60006120c1600754846127cb90919063ffffffff16565b9050600660009054906101000a900473ffffffffffffffffffffffffffffffffffffffff1673ffffffffffffffffffffffffffffffffffffffff166323b872dd8330846040518463ffffffff1660e01b8152600401808473ffffffffffffffffffffffffffffffffffffffff1673ffffffffffffffffffffffffffffffffffffffff1681526020018373ffffffffffffffffffffffffffffffffffffffff1673ffffffffffffffffffffffffffffffffffffffff1681526020018281526020019350505050602060405180830381600087803b1580156121a057600080fd5b505af11580156121b4573d6000803e3d6000fd5b505050506040513d60208110156121ca57600080fd5b8101908080519060200190929190505050506107d0831061224f576001600a60008473ffffffffffffffffffffffffffffffffffffffff1673ffffffffffffffffffffffffffffffffffffffff16815260200190815260200160002060030160146101000a81548160ff02191690831515021790555061224e6010838360036110c3565b5b505050565b600b6020528060005260406000206000915090508060000154908060010154908060020154908060030154908060040154908060050160009054906101000a900473ffffffffffffffffffffffffffffffffffffffff16908060060160009054906101000a900473ffffffffffffffffffffffffffffffffffffffff16905087565b6000600660009054906101000a900473ffffffffffffffffffffffffffffffffffffffff1673ffffffffffffffffffffffffffffffffffffffff166370a08231836040518263ffffffff1660e01b8152600401808273ffffffffffffffffffffffffffffffffffffffff1673ffffffffffffffffffffffffffffffffffffffff16815260200191505060206040518083038186803b15801561237757600080fd5b505afa15801561238b573d6000803e3d6000fd5b505050506040513d60208110156123a157600080fd5b81019080805190602001909291905050509050919050565b600a6020528060005260406000206000915090508060000154908060010154908060020154908060030160009054906101000a900473ffffffffffffffffffffffffffffffffffffffff16908060030160149054906101000a900460ff16905085565b600a60003373ffffffffffffffffffffffffffffffffffffffff1673ffffffffffffffffffffffffffffffffffffffff16815260200190815260200160002060030160149054906101000a900460ff16156124ae576124a9600860008360ff1660ff16815260200190815260200160002060009054906101000a900460ff1660ff1633848460ff166110c3565b6124e7565b6124e6600960008360ff1660ff16815260200190815260200160002060009054906101000a900460ff1660ff1633848460ff166110c3565b5b5050565b600e602052816000526040600020602052806000526040600020600091509150508060000154908060010154908060020154908060030154908060040154908060050160009054906101000a900473ffffffffffffffffffffffffffffffffffffffff16908060060160009054906101000a900473ffffffffffffffffffffffffffffffffffffffff16905087565b60008060019054906101000a900473ffffffffffffffffffffffffffffffffffffffff16905090565b600073ffffffffffffffffffffffffffffffffffffffff168273ffffffffffffffffffffffffffffffffffffffff161415612629576040517f08c379a000000000000000000000000000000000000000000000000000000000815260040180806020018281038252602a815260200180612deb602a913960400191505060405180910390fd5b60008114156126a0576040517f08c379a00000000000000000000000000000000000000000000000000000000081526004018080602001828103825260198152602001807f43726f776473616c653a20776569416d6f756e7420697320300000000000000081525060200191505060405180910390fd5b5050565b60006126bb600254836127cb90919063ffffffff16565b9050919050565b600080828401905083811015612740576040517f08c379a000000000000000000000000000000000000000000000000000000000815260040180806020018281038252601b8152602001807f536166654d6174683a206164646974696f6e206f766572666c6f77000000000081525060200191505060405180910390fd5b8091505092915050565b612754828261289b565b5050565b5050565b600160009054906101000a900473ffffffffffffffffffffffffffffffffffffffff1673ffffffffffffffffffffffffffffffffffffffff166108fc349081150290604051600060405180830381858888f193505050501580156127c4573d6000803e3d6000fd5b50565b5050565b6000808314156127de576000905061284b565b60008284029050828482816127ef57fe5b0414612846576040517f08c379a0000000000000000000000000000000000000000000000000000000008152600401808060200182810382526021815260200180612dca6021913960400191505060405180910390fd5b809150505b92915050565b600061289383836040518060400160405280601a81526020017f536166654d6174683a206469766973696f6e206279207a65726f0000000000008152506128ec565b905092915050565b6128e88282600060019054906101000a900473ffffffffffffffffffffffffffffffffffffffff1673ffffffffffffffffffffffffffffffffffffffff166129b29092919063ffffffff16565b5050565b60008083118290612998576040517f08c379a00000000000000000000000000000000000000000000000000000000081526004018080602001828103825283818151815260200191508051906020019080838360005b8381101561295d578082015181840152602081019050612942565b50505050905090810190601f16801561298a5780820380516001836020036101000a031916815260200191505b509250505060405180910390fd5b5060008385816129a457fe5b049050809150509392505050565b612a7e838473ffffffffffffffffffffffffffffffffffffffff1663a9059cbb905060e01b8484604051602401808373ffffffffffffffffffffffffffffffffffffffff1673ffffffffffffffffffffffffffffffffffffffff16815260200182815260200192505050604051602081830303815290604052907bffffffffffffffffffffffffffffffffffffffffffffffffffffffff19166020820180517bffffffffffffffffffffffffffffffffffffffffffffffffffffffff8381831617835250505050612a83565b505050565b612aa28273ffffffffffffffffffffffffffffffffffffffff16612cce565b612b14576040517f08c379a000000000000000000000000000000000000000000000000000000000815260040180806020018281038252601f8152602001807f5361666545524332303a2063616c6c20746f206e6f6e2d636f6e74726163740081525060200191505060405180910390fd5b600060608373ffffffffffffffffffffffffffffffffffffffff16836040518082805190602001908083835b60208310612b635780518252602082019150602081019050602083039250612b40565b6001836020036101000a0380198251168184511680821785525050505050509050019150506000604051808303816000865af19150503d8060008114612bc5576040519150601f19603f3d011682016040523d82523d6000602084013e612bca565b606091505b509150915081612c42576040517f08c379a00000000000000000000000000000000000000000000000000000000081526004018080602001828103825260208152602001807f5361666545524332303a206c6f772d6c6576656c2063616c6c206661696c656481525060200191505060405180910390fd5b600081511115612cc857808060200190516020811015612c6157600080fd5b8101908080519060200190929190505050612cc7576040517f08c379a000000000000000000000000000000000000000000000000000000000815260040180806020018281038252602a815260200180612e3e602a913960400191505060405180910390fd5b5b50505050565b60008060007fc5d2460186f7233c927e7db2dcc703c0e500b653ca82273b7bfad8045d85a47060001b9050833f9150808214158015612d1057506000801b8214155b92505050919050565b6040518060e001604052806000815260200160008152602001600081526020016000815260200160008152602001600073ffffffffffffffffffffffffffffffffffffffff168152602001600073ffffffffffffffffffffffffffffffffffffffff1681525090565b6040518060a00160405280600081526020016000815260200160008152602001600073ffffffffffffffffffffffffffffffffffffffff168152602001600015158152509056fe536166654d6174683a206d756c7469706c69636174696f6e206f766572666c6f7743726f776473616c653a2062656e656669636961727920697320746865207a65726f2061646472657373496e7465726573742063616e2062652075706461746564206f6e6c79206166746572203720646179735361666545524332303a204552433230206f7065726174696f6e20646964206e6f742073756363656564a265627a7a72315820d69320a198958cddbfe00bcb639cef1d27a0e4097dc6e2da4386dd741b64b2bd64736f6c6343000510003243726f776473616c653a20746f6b656e20697320746865207a65726f206164647265737343726f776473616c653a2077616c6c657420697320746865207a65726f2061646472657373",
  "source": "pragma solidity ^0.5.0;\n\nimport \"@openzeppelin/contracts/crowdsale/Crowdsale.sol\";\n\ncontract QuillCrowdsale is Crowdsale{\n    using SafeMath for uint256;\n    \n    uint256 public _rate;\n    uint256 public totalUIDs;\n    IERC20 public QuillTtoken;\n    uint256 public exchangeRate = 1000; // 1 dollar = 1000 tokens\n    \n    mapping (uint8 => uint8) public timeToInterest_Staked;\n    mapping (uint8 => uint8) public timeToInterest_NonStaked;\n\n    constructor (\n        uint256 rate,\n        address payable wallet,\n        IERC20 ERCtoken\n    )\n        public\n        Crowdsale(rate, wallet, ERCtoken)\n    {\n        QuillTtoken = ERCtoken;\n        _rate = rate;\n        timeToInterest_Staked[3] = 20;\n        timeToInterest_Staked[1] = 16;\n        timeToInterest_NonStaked[3] = 16;\n        timeToInterest_NonStaked[1] = 12;\n    \n    }\n    \n    struct userDetails{\n        uint256 totalStaked;\n        uint256 totalThreeMonthUIDs;\n        uint256 totalOneMonthUIDs;\n        address userAddress;\n        bool staked;       \n    }\n\n    struct lockupDetails{\n        uint256 apy;\n        uint256 tokensLocked;\n        uint256 lockUpTime;\n        uint256 deadLineInDays;\n        uint256 interestEarned;\n        address uid;\n        address owner;\n    }\n    \n    mapping(address => userDetails) public userData;\n    mapping(address => lockupDetails) public lockupData;\n    mapping(uint256 => address) public uidList;\n    mapping(address => mapping(uint256 => lockupDetails)) public threeMonthperiod;\n    mapping(address => mapping(uint256 => lockupDetails)) public oneMonthperiod;\n    \n    \n    function get(address _user) public view returns(uint256){\n        return QuillTtoken.balanceOf(_user);\n    }\n    \n    function stake(uint256 _amountInDollars) public{\n        address user = msg.sender;\n        require(!userData[user].staked,\"User has already STAKED\");\n        uint256 tokens = _amountInDollars.mul(exchangeRate);\n        QuillTtoken.transferFrom(user,address(this),tokens);\n        if(_amountInDollars >=2000){\n            userData[user].staked = true;\n            assignInterest(16,user,tokens,3);\n        }\n    }\n    \n    function lockUp(uint256 _tokens,uint8 _numberOfMonths) public{\n        if(userData[msg.sender].staked){\n            assignInterest(timeToInterest_Staked[_numberOfMonths],msg.sender,_tokens,_numberOfMonths);\n        }else{\n            assignInterest(timeToInterest_NonStaked[_numberOfMonths],msg.sender,_tokens,_numberOfMonths);\n        }\n    }\n    \n    function assignInterest(uint256 _interest, address _user,uint256 _tokens,uint256 _numberOfMonths) public{\n        require(QuillTtoken.balanceOf(_user)>_tokens, \"User Balance is Not Enough\");\n        QuillTtoken.transferFrom(_user,address(this),_tokens);\n        \n        address uid = address(bytes20(keccak256(abi.encodePacked(msg.sender,now))));\n        totalUIDs++;\n        \n        lockupDetails memory details = lockupDetails(_interest,_tokens,now,_numberOfMonths.mul(10),0,uid,_user);\n        lockupData[uid] = details;\n        userDetails memory user = userData[_user];\n        user.totalStaked += _tokens;\n        user.userAddress = _user;\n        if(_numberOfMonths == 3){\n            user.totalThreeMonthUIDs += 1;\n            threeMonthperiod[_user][user.totalThreeMonthUIDs] = details;\n        }else if(_numberOfMonths == 1){\n            user.totalOneMonthUIDs += 1;\n            oneMonthperiod[_user][user.totalOneMonthUIDs] = details;\n        }\n        \n        userData[_user] = user;\n        uidList[totalUIDs] = uid;\n        \n    }\n    \n    \n    function updateInterest(address _uid) public{\n        require(lockupData[_uid].owner == msg.sender, \"Caller is not the OWNER\");\n        require(now > lockupData[_uid].lockUpTime + 7 * 1 days, \"Interest can be updated only after 7 days\");\n        uint256 principalAmt = lockupData[_uid].tokensLocked;\n        uint256 apy = lockupData[_uid].apy;\n        uint256 interest = apy.mul(principalAmt).div(100);\n        uint256 updatedBalance = principalAmt.add(interest);\n        \n        lockupDetails memory _data = lockupData[_uid];\n        _data.interestEarned += interest;\n        _data.tokensLocked += updatedBalance;\n        _data.lockUpTime = now;\n        \n        lockupData[_uid] = _data;\n        \n        \n    }\n    \n    function withdrawLockedTokens(address _uid) public{\n        require(lockupData[_uid].owner == msg.sender, \"Caller is not the OWNER\");\n        uint256 deadline = lockupData[_uid].deadLineInDays;\n        require(now > lockupData[_uid].lockUpTime + deadline * 1 days, \"LockUP period NOT OVER YET\");\n        uint256 withdrawAmount = lockupData[_uid].tokensLocked;\n        \n        if(withdrawAmount > QuillTtoken.balanceOf(address(this))){\n            QuillTtoken._mint(msg.sender,withdrawAmount);\n        }else{\n            QuillTtoken.transfer(msg.sender,withdrawAmount);\n        }   \n    }\n}",
  "sourcePath": "/home/zaryab/blockchain_begins/all_about_ethereum/dapps/quillHash_ERC/contracts/SwamCrowdSale.sol",
  "compiler": {
    "name": "solc",
    "version": "0.5.16+commit.9c3226ce.Emscripten.clang"
  },
  "schemaVersion": "3.0.23",
  "updatedAt": "2020-09-18T05:31:07.162Z",
  "devdoc": {
    "methods": {
      "buyTokens(address)": {
        "details": "low level token purchase ***DO NOT OVERRIDE*** This function has a non-reentrancy guard, so it shouldn't be called by another `nonReentrant` function.",
        "params": {
          "beneficiary": "Recipient of the token purchase"
        }
      },
      "rate()": {
        "return": "the number of token units a buyer gets per wei."
      },
      "token()": {
        "return": "the token being sold."
      },
      "wallet()": {
        "return": "the address where funds are collected."
      },
      "weiRaised()": {
        "return": "the amount of wei raised."
      }
    }
  },
  "userdoc": {
    "methods": {}
  }
}